S00E00004C4142332E322E73726563B4
S11300000C942A000C9434000C9434000C943400A6
S11300100C9434000C9434000C9434000C9434008C
S11300200C9434000C9434000C9434000C9434007C
S11300300C9434000C9434000C9434000C9434006C
S11300400C9434000C9434000C9434000C9434005C
S11300500C94340011241FBECFE5D8E0DEBFCDBF21
S11300600E9436000C944F000C94000083B7866005
S113007083BF88B3816088BB8FEF8ABB1BBA08C07B
S113008082B78BBB8FE493EC0197F1F700C00000BB
S113009008B600FEF5CF83B7887F83BFF9CFF89405
S10500A0FFCF8C
S9030000FC
