S00E00004C4142332E332E73726563B3
S11300000C942A000C9434000C9434000C943400A6
S11300100C9434000C9434000C9434000C9434008C
S11300200C9434000C9434000C9434000C9434007C
S11300300C9434000C9434000C9434000C9434006C
S11300400C9434000C9434000C9434000C9434005C
S11300500C94340011241FBECFE5D8E0DEBFCDBF21
S11300600E9436000C9455000C94000083B78D60F8
S113007083BF8FEF8ABB1BBA82E98CBF88B78260CB
S113008088BF8BB381608BBB08B601FEFDCF12BE67
S113009080E38CBF88B7826088BF8BB38E7F8BBBB5
S11100A008B601FEFDCF12BEE7CFF894FFCFE5
S9030000FC
