S00C00004C6162332E73726563D6
S11300000C942A000C9434000C9434000C943400A6
S11300100C9434000C9434000C9434000C9434008C
S11300200C9434000C9434000C9434000C9434007C
S11300300C9434000C9434000C9434000C9434006C
S11300400C9434000C9434000C9434000C9434005C
S11300500C94340011241FBECFE5D8E0DEBFCDBF21
S11300600E9448000C9457000C94000008B601FE4E
S1130070FDCF12BE88B7826088BF0895CF93C0E0D9
S113008003C00E943600CF5FC436D8F3CF910895E1
S113009083B78C6083BF88E28CBF81E08ABB1BBAC4
S11300A09BB381E089278BBB0E943E00F9CFF89473
S10500B0FFCF7C
S9030000FC
